{
  "contractName": "KryptoBird",
  "abi": [
    {
      "inputs": [],
      "stateMutability": "nonpayable",
      "type": "constructor"
    },
    {
      "anonymous": false,
      "inputs": [
        {
          "indexed": true,
          "internalType": "address",
          "name": "from",
          "type": "address"
        },
        {
          "indexed": true,
          "internalType": "address",
          "name": "to",
          "type": "address"
        },
        {
          "indexed": true,
          "internalType": "uint256",
          "name": "tokenId",
          "type": "uint256"
        }
      ],
      "name": "Transfer",
      "type": "event"
    },
    {
      "inputs": [
        {
          "internalType": "address",
          "name": "_owner",
          "type": "address"
        }
      ],
      "name": "balanceOf",
      "outputs": [
        {
          "internalType": "uint256",
          "name": "",
          "type": "uint256"
        }
      ],
      "stateMutability": "view",
      "type": "function",
      "constant": true
    },
    {
      "inputs": [
        {
          "internalType": "uint256",
          "name": "",
          "type": "uint256"
        }
      ],
      "name": "kryptoBirdz",
      "outputs": [
        {
          "internalType": "string",
          "name": "",
          "type": "string"
        }
      ],
      "stateMutability": "view",
      "type": "function",
      "constant": true
    },
    {
      "inputs": [],
      "name": "name",
      "outputs": [
        {
          "internalType": "string",
          "name": "",
          "type": "string"
        }
      ],
      "stateMutability": "view",
      "type": "function",
      "constant": true
    },
    {
      "inputs": [
        {
          "internalType": "uint256",
          "name": "_tokenId",
          "type": "uint256"
        }
      ],
      "name": "ownerOf",
      "outputs": [
        {
          "internalType": "address",
          "name": "",
          "type": "address"
        }
      ],
      "stateMutability": "view",
      "type": "function",
      "constant": true
    },
    {
      "inputs": [],
      "name": "symbol",
      "outputs": [
        {
          "internalType": "string",
          "name": "",
          "type": "string"
        }
      ],
      "stateMutability": "view",
      "type": "function",
      "constant": true
    },
    {
      "inputs": [
        {
          "internalType": "uint256",
          "name": "_index",
          "type": "uint256"
        }
      ],
      "name": "tokenByIndex",
      "outputs": [
        {
          "internalType": "uint256",
          "name": "",
          "type": "uint256"
        }
      ],
      "stateMutability": "view",
      "type": "function",
      "constant": true
    },
    {
      "inputs": [
        {
          "internalType": "address",
          "name": "_owner",
          "type": "address"
        },
        {
          "internalType": "uint256",
          "name": "_index",
          "type": "uint256"
        }
      ],
      "name": "tokenOfOwnerByIndex",
      "outputs": [
        {
          "internalType": "uint256",
          "name": "",
          "type": "uint256"
        }
      ],
      "stateMutability": "view",
      "type": "function",
      "constant": true
    },
    {
      "inputs": [],
      "name": "totalSupply",
      "outputs": [
        {
          "internalType": "uint256",
          "name": "",
          "type": "uint256"
        }
      ],
      "stateMutability": "view",
      "type": "function",
      "constant": true
    },
    {
      "inputs": [
        {
          "internalType": "string",
          "name": "_kryptoBird",
          "type": "string"
        }
      ],
      "name": "mint",
      "outputs": [],
      "stateMutability": "nonpayable",
      "type": "function"
    }
  ],
  "bytecode": "0x60806040523480156200001157600080fd5b506040518060400160405280600a81526020017f4b727970746f42697264000000000000000000000000000000000000000000008152506040518060400160405280600681526020017f4b424952445a00000000000000000000000000000000000000000000000000008152508181816000908162000091919062000328565b508060019081620000a3919062000328565b50505050506200040f565b600081519050919050565b7f4e487b7100000000000000000000000000000000000000000000000000000000600052604160045260246000fd5b7f4e487b7100000000000000000000000000000000000000000000000000000000600052602260045260246000fd5b600060028204905060018216806200013057607f821691505b602082108103620001465762000145620000e8565b5b50919050565b60008190508160005260206000209050919050565b60006020601f8301049050919050565b600082821b905092915050565b600060088302620001b07fffffffffffffffffffffffffffffffffffffffffffffffffffffffffffffffff8262000171565b620001bc868362000171565b95508019841693508086168417925050509392505050565b6000819050919050565b6000819050919050565b60006200020962000203620001fd84620001d4565b620001de565b620001d4565b9050919050565b6000819050919050565b6200022583620001e8565b6200023d620002348262000210565b8484546200017e565b825550505050565b600090565b6200025462000245565b620002618184846200021a565b505050565b5b8181101562000289576200027d6000826200024a565b60018101905062000267565b5050565b601f821115620002d857620002a2816200014c565b620002ad8462000161565b81016020851015620002bd578190505b620002d5620002cc8562000161565b83018262000266565b50505b505050565b600082821c905092915050565b6000620002fd60001984600802620002dd565b1980831691505092915050565b6000620003188383620002ea565b9150826002028217905092915050565b6200033382620000ae565b67ffffffffffffffff8111156200034f576200034e620000b9565b5b6200035b825462000117565b620003688282856200028d565b600060209050601f831160018114620003a057600084156200038b578287015190505b6200039785826200030a565b86555062000407565b601f198416620003b0866200014c565b60005b82811015620003da57848901518255600182019150602085019450602081019050620003b3565b86831015620003fa5784890151620003f6601f891682620002ea565b8355505b6001600288020188555050505b505050505050565b611605806200041f6000396000f3fe608060405234801561001057600080fd5b50600436106100935760003560e01c80636352211e116100665780636352211e1461013457806370a082311461016457806393ab6e561461019457806395d89b41146101c4578063d85d3d27146101e257610093565b806306fdde031461009857806318160ddd146100b65780632f745c59146100d45780634f6ccce714610104575b600080fd5b6100a06101fe565b6040516100ad9190610b3a565b60405180910390f35b6100be610290565b6040516100cb9190610b75565b60405180910390f35b6100ee60048036038101906100e99190610c2e565b61029d565b6040516100fb9190610b75565b60405180910390f35b61011e60048036038101906101199190610c6e565b61034d565b60405161012b9190610b75565b60405180910390f35b61014e60048036038101906101499190610c6e565b6103be565b60405161015b9190610caa565b60405180910390f35b61017e60048036038101906101799190610cc5565b61044a565b60405161018b9190610b75565b60405180910390f35b6101ae60048036038101906101a99190610c6e565b610507565b6040516101bb9190610b3a565b60405180910390f35b6101cc6105b3565b6040516101d99190610b3a565b60405180910390f35b6101fc60048036038101906101f79190610e27565b610645565b005b60606000805461020d90610e9f565b80601f016020809104026020016040519081016040528092919081815260200182805461023990610e9f565b80156102865780601f1061025b57610100808354040283529160200191610286565b820191906000526020600020905b81548152906001019060200180831161026957829003601f168201915b5050505050905090565b6000600480549050905090565b60006102a88361044a565b82106102e9576040517f08c379a00000000000000000000000000000000000000000000000000000000081526004016102e090610f42565b60405180910390fd5b600660008473ffffffffffffffffffffffffffffffffffffffff1673ffffffffffffffffffffffffffffffffffffffff168152602001908152602001600020828154811061033a57610339610f62565b5b9060005260206000200154905092915050565b6000610357610290565b8210610398576040517f08c379a000000000000000000000000000000000000000000000000000000000815260040161038f90611003565b60405180910390fd5b600482815481106103ac576103ab610f62565b5b90600052602060002001549050919050565b60006103c982610741565b15610409576040517f08c379a00000000000000000000000000000000000000000000000000000000081526004016104009061106f565b60405180910390fd5b60006002600084815260200190815260200160002060009054906101000a900473ffffffffffffffffffffffffffffffffffffffff16905080915050919050565b60008073ffffffffffffffffffffffffffffffffffffffff168273ffffffffffffffffffffffffffffffffffffffff16036104ba576040517f08c379a00000000000000000000000000000000000000000000000000000000081526004016104b190611101565b60405180910390fd5b6000600360008473ffffffffffffffffffffffffffffffffffffffff1673ffffffffffffffffffffffffffffffffffffffff16815260200190815260200160002054905080915050919050565b6008818154811061051757600080fd5b90600052602060002001600091509050805461053290610e9f565b80601f016020809104026020016040519081016040528092919081815260200182805461055e90610e9f565b80156105ab5780601f10610580576101008083540402835291602001916105ab565b820191906000526020600020905b81548152906001019060200180831161058e57829003601f168201915b505050505081565b6060600180546105c290610e9f565b80601f01602080910402602001604051908101604052809291908181526020018280546105ee90610e9f565b801561063b5780601f106106105761010080835404028352916020019161063b565b820191906000526020600020905b81548152906001019060200180831161061e57829003601f168201915b5050505050905090565b600981604051610655919061115d565b908152602001604051809103902060009054906101000a900460ff16156106b1576040517f08c379a00000000000000000000000000000000000000000000000000000000081526004016106a8906111e6565b60405180910390fd5b6008819080600181540180825580915050600190039060005260206000200160009091909190915090816106e591906113b2565b50600060016008805490506106fa91906114b3565b905061070633826107b3565b6001600983604051610718919061115d565b908152602001604051809103902060006101000a81548160ff0219169083151502179055505050565b6000806002600084815260200190815260200160002060009054906101000a900473ffffffffffffffffffffffffffffffffffffffff169050600073ffffffffffffffffffffffffffffffffffffffff168173ffffffffffffffffffffffffffffffffffffffff161415915050919050565b6107bd82826107d4565b6107c78282610994565b6107d081610a58565b5050565b600073ffffffffffffffffffffffffffffffffffffffff168273ffffffffffffffffffffffffffffffffffffffff1603610843576040517f08c379a000000000000000000000000000000000000000000000000000000000815260040161083a90611559565b60405180910390fd5b61084c81610741565b1561088c576040517f08c379a00000000000000000000000000000000000000000000000000000000081526004016108839061106f565b60405180910390fd5b816002600083815260200190815260200160002060006101000a81548173ffffffffffffffffffffffffffffffffffffffff021916908373ffffffffffffffffffffffffffffffffffffffff1602179055506001600360008473ffffffffffffffffffffffffffffffffffffffff1673ffffffffffffffffffffffffffffffffffffffff168152602001908152602001600020600082825461092e9190611579565b92505081905550808273ffffffffffffffffffffffffffffffffffffffff163373ffffffffffffffffffffffffffffffffffffffff167fddf252ad1be2c89b69c2b068fc378daa952ba7f163c4a11628f55a4df523b3ef60405160405180910390a45050565b600660008373ffffffffffffffffffffffffffffffffffffffff1673ffffffffffffffffffffffffffffffffffffffff168152602001908152602001600020805490506007600083815260200190815260200160002081905550600660008373ffffffffffffffffffffffffffffffffffffffff1673ffffffffffffffffffffffffffffffffffffffff1681526020019081526020016000208190806001815401808255809150506001900390600052602060002001600090919091909150555050565b6004805490506005600083815260200190815260200160002081905550600481908060018154018082558091505060019003906000526020600020016000909190919091505550565b600081519050919050565b600082825260208201905092915050565b60005b83811015610adb578082015181840152602081019050610ac0565b83811115610aea576000848401525b50505050565b6000601f19601f8301169050919050565b6000610b0c82610aa1565b610b168185610aac565b9350610b26818560208601610abd565b610b2f81610af0565b840191505092915050565b60006020820190508181036000830152610b548184610b01565b905092915050565b6000819050919050565b610b6f81610b5c565b82525050565b6000602082019050610b8a6000830184610b66565b92915050565b6000604051905090565b600080fd5b600080fd5b600073ffffffffffffffffffffffffffffffffffffffff82169050919050565b6000610bcf82610ba4565b9050919050565b610bdf81610bc4565b8114610bea57600080fd5b50565b600081359050610bfc81610bd6565b92915050565b610c0b81610b5c565b8114610c1657600080fd5b50565b600081359050610c2881610c02565b92915050565b60008060408385031215610c4557610c44610b9a565b5b6000610c5385828601610bed565b9250506020610c6485828601610c19565b9150509250929050565b600060208284031215610c8457610c83610b9a565b5b6000610c9284828501610c19565b91505092915050565b610ca481610bc4565b82525050565b6000602082019050610cbf6000830184610c9b565b92915050565b600060208284031215610cdb57610cda610b9a565b5b6000610ce984828501610bed565b91505092915050565b600080fd5b600080fd5b7f4e487b7100000000000000000000000000000000000000000000000000000000600052604160045260246000fd5b610d3482610af0565b810181811067ffffffffffffffff82111715610d5357610d52610cfc565b5b80604052505050565b6000610d66610b90565b9050610d728282610d2b565b919050565b600067ffffffffffffffff821115610d9257610d91610cfc565b5b610d9b82610af0565b9050602081019050919050565b82818337600083830152505050565b6000610dca610dc584610d77565b610d5c565b905082815260208101848484011115610de657610de5610cf7565b5b610df1848285610da8565b509392505050565b600082601f830112610e0e57610e0d610cf2565b5b8135610e1e848260208601610db7565b91505092915050565b600060208284031215610e3d57610e3c610b9a565b5b600082013567ffffffffffffffff811115610e5b57610e5a610b9f565b5b610e6784828501610df9565b91505092915050565b7f4e487b7100000000000000000000000000000000000000000000000000000000600052602260045260246000fd5b60006002820490506001821680610eb757607f821691505b602082108103610eca57610ec9610e70565b5b50919050565b7f455243373231456e756d62657261626c653a206f776e657220696e646578206f60008201527f7574206f6620626f756e64730000000000000000000000000000000000000000602082015250565b6000610f2c602c83610aac565b9150610f3782610ed0565b604082019050919050565b60006020820190508181036000830152610f5b81610f1f565b9050919050565b7f4e487b7100000000000000000000000000000000000000000000000000000000600052603260045260246000fd5b7f455243373231456e756d62657261626c653a20676c6f62616c20696e6465782060008201527f6f7574206f6620626f756e647300000000000000000000000000000000000000602082015250565b6000610fed602d83610aac565b9150610ff882610f91565b604082019050919050565b6000602082019050818103600083015261101c81610fe0565b9050919050565b7f4552433732313a20746f6b656e20616c7265616479206d696e74656400000000600082015250565b6000611059601c83610aac565b915061106482611023565b602082019050919050565b600060208201905081810360008301526110888161104c565b9050919050565b7f4552433732313a206f776e657220717565727920666f72206e6f6e2d6578697360008201527f74656e7420746f6b656e00000000000000000000000000000000000000000000602082015250565b60006110eb602a83610aac565b91506110f68261108f565b604082019050919050565b6000602082019050818103600083015261111a816110de565b9050919050565b600081905092915050565b600061113782610aa1565b6111418185611121565b9350611151818560208601610abd565b80840191505092915050565b6000611169828461112c565b915081905092915050565b7f4572726f72202d206b727970746f4269726420616c726561647920657869737460008201527f7300000000000000000000000000000000000000000000000000000000000000602082015250565b60006111d0602183610aac565b91506111db82611174565b604082019050919050565b600060208201905081810360008301526111ff816111c3565b9050919050565b60008190508160005260206000209050919050565b60006020601f8301049050919050565b600082821b905092915050565b6000600883026112687fffffffffffffffffffffffffffffffffffffffffffffffffffffffffffffffff8261122b565b611272868361122b565b95508019841693508086168417925050509392505050565b6000819050919050565b60006112af6112aa6112a584610b5c565b61128a565b610b5c565b9050919050565b6000819050919050565b6112c983611294565b6112dd6112d5826112b6565b848454611238565b825550505050565b600090565b6112f26112e5565b6112fd8184846112c0565b505050565b5b81811015611321576113166000826112ea565b600181019050611303565b5050565b601f8211156113665761133781611206565b6113408461121b565b8101602085101561134f578190505b61136361135b8561121b565b830182611302565b50505b505050565b600082821c905092915050565b60006113896000198460080261136b565b1980831691505092915050565b60006113a28383611378565b9150826002028217905092915050565b6113bb82610aa1565b67ffffffffffffffff8111156113d4576113d3610cfc565b5b6113de8254610e9f565b6113e9828285611325565b600060209050601f83116001811461141c576000841561140a578287015190505b6114148582611396565b86555061147c565b601f19841661142a86611206565b60005b828110156114525784890151825560018201915060208501945060208101905061142d565b8683101561146f578489015161146b601f891682611378565b8355505b6001600288020188555050505b505050505050565b7f4e487b7100000000000000000000000000000000000000000000000000000000600052601160045260246000fd5b60006114be82610b5c565b91506114c983610b5c565b9250828210156114dc576114db611484565b5b828203905092915050565b7f4552433732313a206d696e74696e6720746f20746865207a65726f206164647260008201527f6573730000000000000000000000000000000000000000000000000000000000602082015250565b6000611543602383610aac565b915061154e826114e7565b604082019050919050565b6000602082019050818103600083015261157281611536565b9050919050565b600061158482610b5c565b915061158f83610b5c565b9250827fffffffffffffffffffffffffffffffffffffffffffffffffffffffffffffffff038211156115c4576115c3611484565b5b82820190509291505056fea2646970667358221220e53a3756fcee270685919604611ac88277190f744265b7431b7d83bd18b7c4d064736f6c634300080f0033",
  "immutableReferences": {},
  "source": "// SPDX-License-Identifier: MIT\npragma solidity ^0.8.0;\n\nimport './ERC721Connector.sol';\ncontract KryptoBird is ERC721Connector {\n    \n    // array to store our nfts\n    string [] public kryptoBirdz;\n\n    mapping(string => bool) _kryptoBirdzExists;\n\n    constructor() ERC721Connector('KryptoBird', 'KBIRDZ') {\n\n    }\n\n    function mint(string memory _kryptoBird) public {\n        // this is deprecated on ^0.6.0 - uint256 _id = KryptoBirdz.push(_KryptoBird);\n        // .push no longer returns the length but a ref the added element\n        require(!_kryptoBirdzExists[_kryptoBird], \"Error - kryptoBird already exists\");\n\n        kryptoBirdz.push(_kryptoBird);\n        uint _id = kryptoBirdz.length - 1;\n\n        _mint(msg.sender, _id);\n\n        _kryptoBirdzExists[_kryptoBird] = true;\n    }\n}",
  "sourcePath": "/Users/jangseongho/Desktop/web3/nft-marketplace-starter-kit/src/contracts/KryptoBirdz.sol",
  "compiler": {
    "name": "solc",
    "version": "0.8.15+commit.e14f2714.Emscripten.clang"
  },
  "schemaVersion": "3.4.8",
  "updatedAt": "2022-08-01T17:56:51.835Z",
  "networkType": "ethereum",
  "devdoc": {
    "kind": "dev",
    "methods": {
      "balanceOf(address)": {
        "details": "NFTs assigned to the zero address are considered invalid, and this  function throws for queries about the zero address.",
        "params": {
          "_owner": "An address for whom to query the balance"
        },
        "returns": {
          "_0": "The number of NFTs owned by `_owner`, possibly zero"
        }
      },
      "ownerOf(uint256)": {
        "details": "NFTs assigned to zero address are considered invalid, and queries  about them do throw.",
        "params": {
          "_tokenId": "The identifier for an NFT"
        },
        "returns": {
          "_0": "The address of the owner of the NFT"
        }
      },
      "tokenByIndex(uint256)": {
        "details": "Throws if `_index` >= `totalSupply()`.",
        "params": {
          "_index": "A counter less than `totalSupply()`"
        },
        "returns": {
          "_0": "The token identifier for the `_index`th NFT,  (sort order not specified)"
        }
      },
      "tokenOfOwnerByIndex(address,uint256)": {
        "details": "Throws if `_index` >= `balanceOf(_owner)` or if  `_owner` is the zero address, representing invalid NFTs.",
        "params": {
          "_index": "A counter less than `balanceOf(_owner)`",
          "_owner": "An address where we are interested in NFTs owned by them"
        },
        "returns": {
          "_0": "The token identifier for the `_index`th NFT assigned to `_owner`,   (sort order not specified)"
        }
      },
      "totalSupply()": {
        "returns": {
          "_0": "A count of valid NFTs tracked by this contract, where each one of  them has an assigned and queryable owner not equal to the zero address"
        }
      }
    },
    "version": 1
  },
  "userdoc": {
    "kind": "user",
    "methods": {
      "balanceOf(address)": {
        "notice": "Count all NFTs assigned to an owner"
      },
      "name()": {
        "notice": "A descriptive name for a collection of NFTs in this contract"
      },
      "ownerOf(uint256)": {
        "notice": "Find the owner of an NFT"
      },
      "symbol()": {
        "notice": "An abbreviated name for NFTs in this contract"
      },
      "tokenByIndex(uint256)": {
        "notice": "Enumerate valid NFTs"
      },
      "tokenOfOwnerByIndex(address,uint256)": {
        "notice": "Enumerate NFTs assigned to an owner"
      },
      "totalSupply()": {
        "notice": "Count NFTs tracked by this contract"
      }
    },
    "version": 1
  }
}