{
  "contractName": "KryptoBird",
  "abi": [
    {
      "inputs": [],
      "stateMutability": "nonpayable",
      "type": "constructor"
    },
    {
      "anonymous": false,
      "inputs": [
        {
          "indexed": true,
          "internalType": "address",
          "name": "_owner",
          "type": "address"
        },
        {
          "indexed": true,
          "internalType": "address",
          "name": "_approved",
          "type": "address"
        },
        {
          "indexed": true,
          "internalType": "uint256",
          "name": "_tokenId",
          "type": "uint256"
        }
      ],
      "name": "Approval",
      "type": "event"
    },
    {
      "anonymous": false,
      "inputs": [
        {
          "indexed": true,
          "internalType": "address",
          "name": "_owner",
          "type": "address"
        },
        {
          "indexed": true,
          "internalType": "address",
          "name": "_operator",
          "type": "address"
        },
        {
          "indexed": false,
          "internalType": "bool",
          "name": "_approved",
          "type": "bool"
        }
      ],
      "name": "ApprovalForAll",
      "type": "event"
    },
    {
      "anonymous": false,
      "inputs": [
        {
          "indexed": true,
          "internalType": "address",
          "name": "_from",
          "type": "address"
        },
        {
          "indexed": true,
          "internalType": "address",
          "name": "_to",
          "type": "address"
        },
        {
          "indexed": true,
          "internalType": "uint256",
          "name": "_tokenId",
          "type": "uint256"
        }
      ],
      "name": "Transfer",
      "type": "event"
    },
    {
      "inputs": [
        {
          "internalType": "address",
          "name": "_approved",
          "type": "address"
        },
        {
          "internalType": "uint256",
          "name": "_tokenId",
          "type": "uint256"
        }
      ],
      "name": "approve",
      "outputs": [],
      "stateMutability": "payable",
      "type": "function",
      "payable": true
    },
    {
      "inputs": [
        {
          "internalType": "address",
          "name": "_owner",
          "type": "address"
        }
      ],
      "name": "balanceOf",
      "outputs": [
        {
          "internalType": "uint256",
          "name": "",
          "type": "uint256"
        }
      ],
      "stateMutability": "view",
      "type": "function",
      "constant": true
    },
    {
      "inputs": [
        {
          "internalType": "uint256",
          "name": "_tokenId",
          "type": "uint256"
        }
      ],
      "name": "getApproved",
      "outputs": [
        {
          "internalType": "address",
          "name": "",
          "type": "address"
        }
      ],
      "stateMutability": "view",
      "type": "function",
      "constant": true
    },
    {
      "inputs": [
        {
          "internalType": "address",
          "name": "_owner",
          "type": "address"
        },
        {
          "internalType": "address",
          "name": "_operator",
          "type": "address"
        }
      ],
      "name": "isApprovedForAll",
      "outputs": [
        {
          "internalType": "bool",
          "name": "",
          "type": "bool"
        }
      ],
      "stateMutability": "view",
      "type": "function",
      "constant": true
    },
    {
      "inputs": [
        {
          "internalType": "uint256",
          "name": "",
          "type": "uint256"
        }
      ],
      "name": "kryptoBirdz",
      "outputs": [
        {
          "internalType": "string",
          "name": "",
          "type": "string"
        }
      ],
      "stateMutability": "view",
      "type": "function",
      "constant": true
    },
    {
      "inputs": [],
      "name": "name",
      "outputs": [
        {
          "internalType": "string",
          "name": "",
          "type": "string"
        }
      ],
      "stateMutability": "view",
      "type": "function",
      "constant": true
    },
    {
      "inputs": [
        {
          "internalType": "uint256",
          "name": "_tokenId",
          "type": "uint256"
        }
      ],
      "name": "ownerOf",
      "outputs": [
        {
          "internalType": "address",
          "name": "",
          "type": "address"
        }
      ],
      "stateMutability": "view",
      "type": "function",
      "constant": true
    },
    {
      "inputs": [
        {
          "internalType": "address",
          "name": "_operator",
          "type": "address"
        },
        {
          "internalType": "bool",
          "name": "_approved",
          "type": "bool"
        }
      ],
      "name": "setApprovalForAll",
      "outputs": [],
      "stateMutability": "nonpayable",
      "type": "function"
    },
    {
      "inputs": [],
      "name": "symbol",
      "outputs": [
        {
          "internalType": "string",
          "name": "",
          "type": "string"
        }
      ],
      "stateMutability": "view",
      "type": "function",
      "constant": true
    },
    {
      "inputs": [
        {
          "internalType": "uint256",
          "name": "_index",
          "type": "uint256"
        }
      ],
      "name": "tokenByIndex",
      "outputs": [
        {
          "internalType": "uint256",
          "name": "",
          "type": "uint256"
        }
      ],
      "stateMutability": "view",
      "type": "function",
      "constant": true
    },
    {
      "inputs": [
        {
          "internalType": "address",
          "name": "_owner",
          "type": "address"
        },
        {
          "internalType": "uint256",
          "name": "_index",
          "type": "uint256"
        }
      ],
      "name": "tokenOfOwnerByIndex",
      "outputs": [
        {
          "internalType": "uint256",
          "name": "",
          "type": "uint256"
        }
      ],
      "stateMutability": "view",
      "type": "function",
      "constant": true
    },
    {
      "inputs": [],
      "name": "totalSupply",
      "outputs": [
        {
          "internalType": "uint256",
          "name": "",
          "type": "uint256"
        }
      ],
      "stateMutability": "view",
      "type": "function",
      "constant": true
    },
    {
      "inputs": [
        {
          "internalType": "address",
          "name": "_from",
          "type": "address"
        },
        {
          "internalType": "address",
          "name": "_to",
          "type": "address"
        },
        {
          "internalType": "uint256",
          "name": "_tokenId",
          "type": "uint256"
        }
      ],
      "name": "transferFrom",
      "outputs": [],
      "stateMutability": "nonpayable",
      "type": "function"
    },
    {
      "inputs": [
        {
          "internalType": "string",
          "name": "_kryptoBird",
          "type": "string"
        }
      ],
      "name": "mint",
      "outputs": [],
      "stateMutability": "nonpayable",
      "type": "function"
    }
  ],
  "bytecode": "0x60806040523480156200001157600080fd5b506040518060400160405280600a81526020017f4b727970746f42697264000000000000000000000000000000000000000000008152506040518060400160405280600681526020017f4b424952445a00000000000000000000000000000000000000000000000000008152508181816000908162000091919062000328565b508060019081620000a3919062000328565b50505050506200040f565b600081519050919050565b7f4e487b7100000000000000000000000000000000000000000000000000000000600052604160045260246000fd5b7f4e487b7100000000000000000000000000000000000000000000000000000000600052602260045260246000fd5b600060028204905060018216806200013057607f821691505b602082108103620001465762000145620000e8565b5b50919050565b60008190508160005260206000209050919050565b60006020601f8301049050919050565b600082821b905092915050565b600060088302620001b07fffffffffffffffffffffffffffffffffffffffffffffffffffffffffffffffff8262000171565b620001bc868362000171565b95508019841693508086168417925050509392505050565b6000819050919050565b6000819050919050565b60006200020962000203620001fd84620001d4565b620001de565b620001d4565b9050919050565b6000819050919050565b6200022583620001e8565b6200023d620002348262000210565b8484546200017e565b825550505050565b600090565b6200025462000245565b620002618184846200021a565b505050565b5b8181101562000289576200027d6000826200024a565b60018101905062000267565b5050565b601f821115620002d857620002a2816200014c565b620002ad8462000161565b81016020851015620002bd578190505b620002d5620002cc8562000161565b83018262000266565b50505b505050565b600082821c905092915050565b6000620002fd60001984600802620002dd565b1980831691505092915050565b6000620003188383620002ea565b9150826002028217905092915050565b6200033382620000ae565b67ffffffffffffffff8111156200034f576200034e620000b9565b5b6200035b825462000117565b620003688282856200028d565b600060209050601f831160018114620003a057600084156200038b578287015190505b6200039785826200030a565b86555062000407565b601f198416620003b0866200014c565b60005b82811015620003da57848901518255600182019150602085019450602081019050620003b3565b86831015620003fa5784890151620003f6601f891682620002ea565b8355505b6001600288020188555050505b505050505050565b61239a806200041f6000396000f3fe6080604052600436106100dd5760003560e01c80636352211e1161007f57806395d89b411161005957806395d89b41146102eb578063a22cb46514610316578063d85d3d271461033f578063e985e9c514610368576100dd565b80636352211e1461023457806370a082311461027157806393ab6e56146102ae576100dd565b806318160ddd116100bb57806318160ddd1461016657806323b872dd146101915780632f745c59146101ba5780634f6ccce7146101f7576100dd565b806306fdde03146100e2578063081812fc1461010d578063095ea7b31461014a575b600080fd5b3480156100ee57600080fd5b506100f76103a5565b6040516101049190611434565b60405180910390f35b34801561011957600080fd5b50610134600480360381019061012f91906114a0565b610437565b604051610141919061150e565b60405180910390f35b610164600480360381019061015f9190611555565b6104bc565b005b34801561017257600080fd5b5061017b610657565b60405161018891906115a4565b60405180910390f35b34801561019d57600080fd5b506101b860048036038101906101b391906115bf565b610664565b005b3480156101c657600080fd5b506101e160048036038101906101dc9190611555565b610687565b6040516101ee91906115a4565b60405180910390f35b34801561020357600080fd5b5061021e600480360381019061021991906114a0565b610737565b60405161022b91906115a4565b60405180910390f35b34801561024057600080fd5b5061025b600480360381019061025691906114a0565b6107a8565b604051610268919061150e565b60405180910390f35b34801561027d57600080fd5b5061029860048036038101906102939190611612565b610833565b6040516102a591906115a4565b60405180910390f35b3480156102ba57600080fd5b506102d560048036038101906102d091906114a0565b6108f0565b6040516102e29190611434565b60405180910390f35b3480156102f757600080fd5b5061030061099c565b60405161030d9190611434565b60405180910390f35b34801561032257600080fd5b5061033d60048036038101906103389190611677565b610a2e565b005b34801561034b57600080fd5b50610366600480360381019061036191906117ec565b610b99565b005b34801561037457600080fd5b5061038f600480360381019061038a9190611835565b610c95565b60405161039c9190611884565b60405180910390f35b6060600080546103b4906118ce565b80601f01602080910402602001604051908101604052809291908181526020018280546103e0906118ce565b801561042d5780601f106104025761010080835404028352916020019161042d565b820191906000526020600020905b81548152906001019060200180831161041057829003601f168201915b5050505050905090565b600061044282610d29565b610481576040517f08c379a000000000000000000000000000000000000000000000000000000000815260040161047890611971565b60405180910390fd5b6004600083815260200190815260200160002060009054906101000a900473ffffffffffffffffffffffffffffffffffffffff169050919050565b60006104c7826107a8565b90508073ffffffffffffffffffffffffffffffffffffffff163373ffffffffffffffffffffffffffffffffffffffff1614610537576040517f08c379a000000000000000000000000000000000000000000000000000000000815260040161052e906119dd565b60405180910390fd5b8073ffffffffffffffffffffffffffffffffffffffff168373ffffffffffffffffffffffffffffffffffffffff16036105a5576040517f08c379a000000000000000000000000000000000000000000000000000000000815260040161059c90611a6f565b60405180910390fd5b826004600084815260200190815260200160002060006101000a81548173ffffffffffffffffffffffffffffffffffffffff021916908373ffffffffffffffffffffffffffffffffffffffff160217905550818373ffffffffffffffffffffffffffffffffffffffff168273ffffffffffffffffffffffffffffffffffffffff167f8c5be1e5ebec7d5bd14f71427d1e84f3dd0314c0f7b2291e5b200ac8c7c3b92560405160405180910390a4505050565b6000600680549050905090565b61066e3382610d9b565b61067757600080fd5b610682838383610e68565b505050565b600061069283610833565b82106106d3576040517f08c379a00000000000000000000000000000000000000000000000000000000081526004016106ca90611b01565b60405180910390fd5b600860008473ffffffffffffffffffffffffffffffffffffffff1673ffffffffffffffffffffffffffffffffffffffff168152602001908152602001600020828154811061072457610723611b21565b5b9060005260206000200154905092915050565b6000610741610657565b8210610782576040517f08c379a000000000000000000000000000000000000000000000000000000000815260040161077990611bc2565b60405180910390fd5b6006828154811061079657610795611b21565b5b90600052602060002001549050919050565b60006107b382610d29565b6107f2576040517f08c379a00000000000000000000000000000000000000000000000000000000081526004016107e990611c2e565b60405180910390fd5b60006002600084815260200190815260200160002060009054906101000a900473ffffffffffffffffffffffffffffffffffffffff16905080915050919050565b60008073ffffffffffffffffffffffffffffffffffffffff168273ffffffffffffffffffffffffffffffffffffffff16036108a3576040517f08c379a000000000000000000000000000000000000000000000000000000000815260040161089a90611cc0565b60405180910390fd5b6000600360008473ffffffffffffffffffffffffffffffffffffffff1673ffffffffffffffffffffffffffffffffffffffff16815260200190815260200160002054905080915050919050565b600a818154811061090057600080fd5b90600052602060002001600091509050805461091b906118ce565b80601f0160208091040260200160405190810160405280929190818152602001828054610947906118ce565b80156109945780601f1061096957610100808354040283529160200191610994565b820191906000526020600020905b81548152906001019060200180831161097757829003601f168201915b505050505081565b6060600180546109ab906118ce565b80601f01602080910402602001604051908101604052809291908181526020018280546109d7906118ce565b8015610a245780601f106109f957610100808354040283529160200191610a24565b820191906000526020600020905b815481529060010190602001808311610a0757829003601f168201915b5050505050905090565b3373ffffffffffffffffffffffffffffffffffffffff168273ffffffffffffffffffffffffffffffffffffffff1603610a9c576040517f08c379a0000000000000000000000000000000000000000000000000000000008152600401610a9390611d2c565b60405180910390fd5b80600560003373ffffffffffffffffffffffffffffffffffffffff1673ffffffffffffffffffffffffffffffffffffffff16815260200190815260200160002060008473ffffffffffffffffffffffffffffffffffffffff1673ffffffffffffffffffffffffffffffffffffffff16815260200190815260200160002060006101000a81548160ff0219169083151502179055508173ffffffffffffffffffffffffffffffffffffffff163373ffffffffffffffffffffffffffffffffffffffff167f17307eab39ab6107e8899845ad3d59bd9653f200f220920489ca2b5937696c3183604051610b8d9190611884565b60405180910390a35050565b600b81604051610ba99190611d88565b908152602001604051809103902060009054906101000a900460ff1615610c05576040517f08c379a0000000000000000000000000000000000000000000000000000000008152600401610bfc90611e11565b60405180910390fd5b600a81908060018154018082558091505060019003906000526020600020016000909190919091509081610c399190611fdd565b5060006001600a80549050610c4e91906120de565b9050610c5a33826110ad565b6001600b83604051610c6c9190611d88565b908152602001604051809103902060006101000a81548160ff0219169083151502179055505050565b6000600560008473ffffffffffffffffffffffffffffffffffffffff1673ffffffffffffffffffffffffffffffffffffffff16815260200190815260200160002060008373ffffffffffffffffffffffffffffffffffffffff1673ffffffffffffffffffffffffffffffffffffffff16815260200190815260200160002060009054906101000a900460ff16905092915050565b6000806002600084815260200190815260200160002060009054906101000a900473ffffffffffffffffffffffffffffffffffffffff169050600073ffffffffffffffffffffffffffffffffffffffff168173ffffffffffffffffffffffffffffffffffffffff161415915050919050565b6000610da682610d29565b610de5576040517f08c379a0000000000000000000000000000000000000000000000000000000008152600401610ddc9061215e565b60405180910390fd5b6000610df0836107a8565b90508073ffffffffffffffffffffffffffffffffffffffff168473ffffffffffffffffffffffffffffffffffffffff161480610e5f57508373ffffffffffffffffffffffffffffffffffffffff16610e4784610437565b73ffffffffffffffffffffffffffffffffffffffff16145b91505092915050565b600073ffffffffffffffffffffffffffffffffffffffff168373ffffffffffffffffffffffffffffffffffffffff1603610ed7576040517f08c379a0000000000000000000000000000000000000000000000000000000008152600401610ece906121f0565b60405180910390fd5b8273ffffffffffffffffffffffffffffffffffffffff16610ef7826107a8565b73ffffffffffffffffffffffffffffffffffffffff1614610f4d576040517f08c379a0000000000000000000000000000000000000000000000000000000008152600401610f44906119dd565b60405180910390fd5b816002600083815260200190815260200160002060006101000a81548173ffffffffffffffffffffffffffffffffffffffff021916908373ffffffffffffffffffffffffffffffffffffffff1602179055506001600360008473ffffffffffffffffffffffffffffffffffffffff1673ffffffffffffffffffffffffffffffffffffffff1681526020019081526020016000206000828254610fef9190612210565b925050819055506001600360008573ffffffffffffffffffffffffffffffffffffffff1673ffffffffffffffffffffffffffffffffffffffff168152602001908152602001600020600082825461104691906120de565b92505081905550808273ffffffffffffffffffffffffffffffffffffffff168473ffffffffffffffffffffffffffffffffffffffff167fddf252ad1be2c89b69c2b068fc378daa952ba7f163c4a11628f55a4df523b3ef60405160405180910390a4505050565b6110b782826110ce565b6110c1828261128e565b6110ca81611352565b5050565b600073ffffffffffffffffffffffffffffffffffffffff168273ffffffffffffffffffffffffffffffffffffffff160361113d576040517f08c379a0000000000000000000000000000000000000000000000000000000008152600401611134906122d8565b60405180910390fd5b61114681610d29565b15611186576040517f08c379a000000000000000000000000000000000000000000000000000000000815260040161117d90612344565b60405180910390fd5b816002600083815260200190815260200160002060006101000a81548173ffffffffffffffffffffffffffffffffffffffff021916908373ffffffffffffffffffffffffffffffffffffffff1602179055506001600360008473ffffffffffffffffffffffffffffffffffffffff1673ffffffffffffffffffffffffffffffffffffffff16815260200190815260200160002060008282546112289190612210565b92505081905550808273ffffffffffffffffffffffffffffffffffffffff163373ffffffffffffffffffffffffffffffffffffffff167fddf252ad1be2c89b69c2b068fc378daa952ba7f163c4a11628f55a4df523b3ef60405160405180910390a45050565b600860008373ffffffffffffffffffffffffffffffffffffffff1673ffffffffffffffffffffffffffffffffffffffff168152602001908152602001600020805490506009600083815260200190815260200160002081905550600860008373ffffffffffffffffffffffffffffffffffffffff1673ffffffffffffffffffffffffffffffffffffffff1681526020019081526020016000208190806001815401808255809150506001900390600052602060002001600090919091909150555050565b6006805490506007600083815260200190815260200160002081905550600681908060018154018082558091505060019003906000526020600020016000909190919091505550565b600081519050919050565b600082825260208201905092915050565b60005b838110156113d55780820151818401526020810190506113ba565b838111156113e4576000848401525b50505050565b6000601f19601f8301169050919050565b60006114068261139b565b61141081856113a6565b93506114208185602086016113b7565b611429816113ea565b840191505092915050565b6000602082019050818103600083015261144e81846113fb565b905092915050565b6000604051905090565b600080fd5b600080fd5b6000819050919050565b61147d8161146a565b811461148857600080fd5b50565b60008135905061149a81611474565b92915050565b6000602082840312156114b6576114b5611460565b5b60006114c48482850161148b565b91505092915050565b600073ffffffffffffffffffffffffffffffffffffffff82169050919050565b60006114f8826114cd565b9050919050565b611508816114ed565b82525050565b600060208201905061152360008301846114ff565b92915050565b611532816114ed565b811461153d57600080fd5b50565b60008135905061154f81611529565b92915050565b6000806040838503121561156c5761156b611460565b5b600061157a85828601611540565b925050602061158b8582860161148b565b9150509250929050565b61159e8161146a565b82525050565b60006020820190506115b96000830184611595565b92915050565b6000806000606084860312156115d8576115d7611460565b5b60006115e686828701611540565b93505060206115f786828701611540565b92505060406116088682870161148b565b9150509250925092565b60006020828403121561162857611627611460565b5b600061163684828501611540565b91505092915050565b60008115159050919050565b6116548161163f565b811461165f57600080fd5b50565b6000813590506116718161164b565b92915050565b6000806040838503121561168e5761168d611460565b5b600061169c85828601611540565b92505060206116ad85828601611662565b9150509250929050565b600080fd5b600080fd5b7f4e487b7100000000000000000000000000000000000000000000000000000000600052604160045260246000fd5b6116f9826113ea565b810181811067ffffffffffffffff82111715611718576117176116c1565b5b80604052505050565b600061172b611456565b905061173782826116f0565b919050565b600067ffffffffffffffff821115611757576117566116c1565b5b611760826113ea565b9050602081019050919050565b82818337600083830152505050565b600061178f61178a8461173c565b611721565b9050828152602081018484840111156117ab576117aa6116bc565b5b6117b684828561176d565b509392505050565b600082601f8301126117d3576117d26116b7565b5b81356117e384826020860161177c565b91505092915050565b60006020828403121561180257611801611460565b5b600082013567ffffffffffffffff8111156118205761181f611465565b5b61182c848285016117be565b91505092915050565b6000806040838503121561184c5761184b611460565b5b600061185a85828601611540565b925050602061186b85828601611540565b9150509250929050565b61187e8161163f565b82525050565b60006020820190506118996000830184611875565b92915050565b7f4e487b7100000000000000000000000000000000000000000000000000000000600052602260045260246000fd5b600060028204905060018216806118e657607f821691505b6020821081036118f9576118f861189f565b5b50919050565b7f4552433732313a20617070726f76656420717565727920666f72206e6f6e657860008201527f697374656e7420746f6b656e0000000000000000000000000000000000000000602082015250565b600061195b602c836113a6565b9150611966826118ff565b604082019050919050565b6000602082019050818103600083015261198a8161194e565b9050919050565b7f4552433732313a20596f7520617265206e6f7420746865206f776e6572000000600082015250565b60006119c7601d836113a6565b91506119d282611991565b602082019050919050565b600060208201905081810360008301526119f6816119ba565b9050919050565b7f4552433732313a20417070726f76616c20746f2063757272656e74206f776e6560008201527f7200000000000000000000000000000000000000000000000000000000000000602082015250565b6000611a596021836113a6565b9150611a64826119fd565b604082019050919050565b60006020820190508181036000830152611a8881611a4c565b9050919050565b7f455243373231456e756d62657261626c653a206f776e657220696e646578206f60008201527f7574206f6620626f756e64730000000000000000000000000000000000000000602082015250565b6000611aeb602c836113a6565b9150611af682611a8f565b604082019050919050565b60006020820190508181036000830152611b1a81611ade565b9050919050565b7f4e487b7100000000000000000000000000000000000000000000000000000000600052603260045260246000fd5b7f455243373231456e756d62657261626c653a20676c6f62616c20696e6465782060008201527f6f7574206f6620626f756e647300000000000000000000000000000000000000602082015250565b6000611bac602d836113a6565b9150611bb782611b50565b604082019050919050565b60006020820190508181036000830152611bdb81611b9f565b9050919050565b7f4552433732313a20746f6b656e206973206e6f74206d696e7465640000000000600082015250565b6000611c18601b836113a6565b9150611c2382611be2565b602082019050919050565b60006020820190508181036000830152611c4781611c0b565b9050919050565b7f4552433732313a206f776e657220717565727920666f72206e6f6e2d6578697360008201527f74656e7420746f6b656e00000000000000000000000000000000000000000000602082015250565b6000611caa602a836113a6565b9150611cb582611c4e565b604082019050919050565b60006020820190508181036000830152611cd981611c9d565b9050919050565b7f4552433732313a20617070726f766520746f2063616c6c657200000000000000600082015250565b6000611d166019836113a6565b9150611d2182611ce0565b602082019050919050565b60006020820190508181036000830152611d4581611d09565b9050919050565b600081905092915050565b6000611d628261139b565b611d6c8185611d4c565b9350611d7c8185602086016113b7565b80840191505092915050565b6000611d948284611d57565b915081905092915050565b7f4572726f72202d206b727970746f4269726420616c726561647920657869737460008201527f7300000000000000000000000000000000000000000000000000000000000000602082015250565b6000611dfb6021836113a6565b9150611e0682611d9f565b604082019050919050565b60006020820190508181036000830152611e2a81611dee565b9050919050565b60008190508160005260206000209050919050565b60006020601f8301049050919050565b600082821b905092915050565b600060088302611e937fffffffffffffffffffffffffffffffffffffffffffffffffffffffffffffffff82611e56565b611e9d8683611e56565b95508019841693508086168417925050509392505050565b6000819050919050565b6000611eda611ed5611ed08461146a565b611eb5565b61146a565b9050919050565b6000819050919050565b611ef483611ebf565b611f08611f0082611ee1565b848454611e63565b825550505050565b600090565b611f1d611f10565b611f28818484611eeb565b505050565b5b81811015611f4c57611f41600082611f15565b600181019050611f2e565b5050565b601f821115611f9157611f6281611e31565b611f6b84611e46565b81016020851015611f7a578190505b611f8e611f8685611e46565b830182611f2d565b50505b505050565b600082821c905092915050565b6000611fb460001984600802611f96565b1980831691505092915050565b6000611fcd8383611fa3565b9150826002028217905092915050565b611fe68261139b565b67ffffffffffffffff811115611fff57611ffe6116c1565b5b61200982546118ce565b612014828285611f50565b600060209050601f8311600181146120475760008415612035578287015190505b61203f8582611fc1565b8655506120a7565b601f19841661205586611e31565b60005b8281101561207d57848901518255600182019150602085019450602081019050612058565b8683101561209a5784890151612096601f891682611fa3565b8355505b6001600288020188555050505b505050505050565b7f4e487b7100000000000000000000000000000000000000000000000000000000600052601160045260246000fd5b60006120e98261146a565b91506120f48361146a565b925082821015612107576121066120af565b5b828203905092915050565b7f4552433732313a20746f6b656e20646f6573206e6f7420657869737400000000600082015250565b6000612148601c836113a6565b915061215382612112565b602082019050919050565b600060208201905081810360008301526121778161213b565b9050919050565b7f4552433732313a207472616e7366657220746f20746865207a65726f2061646460008201527f7265737300000000000000000000000000000000000000000000000000000000602082015250565b60006121da6024836113a6565b91506121e58261217e565b604082019050919050565b60006020820190508181036000830152612209816121cd565b9050919050565b600061221b8261146a565b91506122268361146a565b9250827fffffffffffffffffffffffffffffffffffffffffffffffffffffffffffffffff0382111561225b5761225a6120af565b5b828201905092915050565b7f4552433732313a206d696e74696e6720746f20746865207a65726f206164647260008201527f6573730000000000000000000000000000000000000000000000000000000000602082015250565b60006122c26023836113a6565b91506122cd82612266565b604082019050919050565b600060208201905081810360008301526122f1816122b5565b9050919050565b7f4552433732313a20746f6b656e20616c7265616479206d696e74656400000000600082015250565b600061232e601c836113a6565b9150612339826122f8565b602082019050919050565b6000602082019050818103600083015261235d81612321565b905091905056fea2646970667358221220a500f79697689713db5f5ae4293f30ecd2bd4b6b867c5c0ea5a3737fba53cbaa64736f6c634300080f0033",
  "immutableReferences": {},
  "source": "// SPDX-License-Identifier: MIT\npragma solidity ^0.8.0;\n\nimport './ERC721Connector.sol';\ncontract KryptoBird is ERC721Connector {\n    \n    // array to store our nfts\n    string [] public kryptoBirdz;\n\n    mapping(string => bool) _kryptoBirdzExists;\n\n    constructor() ERC721Connector('KryptoBird', 'KBIRDZ') {\n\n    }\n\n    function mint(string memory _kryptoBird) public {\n        // this is deprecated on ^0.6.0 - uint256 _id = KryptoBirdz.push(_KryptoBird);\n        // .push no longer returns the length but a ref the added element\n        require(!_kryptoBirdzExists[_kryptoBird], \"Error - kryptoBird already exists\");\n\n        kryptoBirdz.push(_kryptoBird);\n        uint _id = kryptoBirdz.length - 1;\n\n        _mint(msg.sender, _id);\n\n        _kryptoBirdzExists[_kryptoBird] = true;\n    }\n}",
  "sourcePath": "/Users/jangseongho/Desktop/web3/nft-marketplace-starter-kit/src/contracts/KryptoBirdz.sol",
  "compiler": {
    "name": "solc",
    "version": "0.8.15+commit.e14f2714.Emscripten.clang"
  },
  "schemaVersion": "3.4.8",
  "updatedAt": "2022-08-02T08:29:42.775Z",
  "networkType": "ethereum",
  "devdoc": {
    "kind": "dev",
    "methods": {
      "approve(address,uint256)": {
        "details": "The zero address indicates there is no approved address.  Throws unless `msg.sender` is the current NFT owner, or an authorized  operator of the current owner.",
        "params": {
          "_approved": "The new approved NFT controller",
          "_tokenId": "The NFT to approve"
        }
      },
      "balanceOf(address)": {
        "details": "NFTs assigned to the zero address are considered invalid, and this  function throws for queries about the zero address.",
        "params": {
          "_owner": "An address for whom to query the balance"
        },
        "returns": {
          "_0": "The number of NFTs owned by `_owner`, possibly zero"
        }
      },
      "getApproved(uint256)": {
        "details": "Throws if `_tokenId` is not a valid NFT.",
        "params": {
          "_tokenId": "The NFT to find the approved address for"
        },
        "returns": {
          "_0": "The approved address for this NFT, or the zero address if there is none"
        }
      },
      "isApprovedForAll(address,address)": {
        "params": {
          "_operator": "The address that acts on behalf of the owner",
          "_owner": "The address that owns the NFTs"
        },
        "returns": {
          "_0": "True if `_operator` is an approved operator for `_owner`, false otherwise"
        }
      },
      "ownerOf(uint256)": {
        "details": "NFTs assigned to zero address are considered invalid, and queries  about them do throw.",
        "params": {
          "_tokenId": "The identifier for an NFT"
        },
        "returns": {
          "_0": "The address of the owner of the NFT"
        }
      },
      "setApprovalForAll(address,bool)": {
        "details": "Emits the ApprovalForAll event. The contract MUST allow  multiple operators per owner.",
        "params": {
          "_approved": "True if the operator is approved, false to revoke approval",
          "_operator": "Address to add to the set of authorized operators"
        }
      },
      "tokenByIndex(uint256)": {
        "details": "Throws if `_index` >= `totalSupply()`.",
        "params": {
          "_index": "A counter less than `totalSupply()`"
        },
        "returns": {
          "_0": "The token identifier for the `_index`th NFT,  (sort order not specified)"
        }
      },
      "tokenOfOwnerByIndex(address,uint256)": {
        "details": "Throws if `_index` >= `balanceOf(_owner)` or if  `_owner` is the zero address, representing invalid NFTs.",
        "params": {
          "_index": "A counter less than `balanceOf(_owner)`",
          "_owner": "An address where we are interested in NFTs owned by them"
        },
        "returns": {
          "_0": "The token identifier for the `_index`th NFT assigned to `_owner`,   (sort order not specified)"
        }
      },
      "totalSupply()": {
        "returns": {
          "_0": "A count of valid NFTs tracked by this contract, where each one of  them has an assigned and queryable owner not equal to the zero address"
        }
      },
      "transferFrom(address,address,uint256)": {
        "details": "Throws unless `msg.sender` is the current owner, an authorized  operator, or the approved address for this NFT. Throws if `_from` is  not the current owner. Throws if `_to` is the zero address. Throws if  `_tokenId` is not a valid NFT.",
        "params": {
          "_from": "The current owner of the NFT",
          "_to": "The new owner",
          "_tokenId": "The NFT to transfer"
        }
      }
    },
    "version": 1
  },
  "userdoc": {
    "kind": "user",
    "methods": {
      "approve(address,uint256)": {
        "notice": "Change or reaffirm the approved address for an NFT"
      },
      "balanceOf(address)": {
        "notice": "Count all NFTs assigned to an owner"
      },
      "getApproved(uint256)": {
        "notice": "Get the approved address for a single NFT"
      },
      "isApprovedForAll(address,address)": {
        "notice": "Query if an address is an authorized operator for another address"
      },
      "name()": {
        "notice": "A descriptive name for a collection of NFTs in this contract"
      },
      "ownerOf(uint256)": {
        "notice": "Find the owner of an NFT"
      },
      "setApprovalForAll(address,bool)": {
        "notice": "Enable or disable approval for a third party (\"operator\") to manage  all of `msg.sender`'s assets"
      },
      "symbol()": {
        "notice": "An abbreviated name for NFTs in this contract"
      },
      "tokenByIndex(uint256)": {
        "notice": "Enumerate valid NFTs"
      },
      "tokenOfOwnerByIndex(address,uint256)": {
        "notice": "Enumerate NFTs assigned to an owner"
      },
      "totalSupply()": {
        "notice": "Count NFTs tracked by this contract"
      },
      "transferFrom(address,address,uint256)": {
        "notice": "TO CONFIRM THAT `_to` IS CAPABLE OF RECEIVING NFTS OR ELSE  THEY MAY BE PERMANENTLY LOST"
      }
    },
    "version": 1
  }
}